{
  "_format": "hh-sol-artifact-1",
  "contractName": "NFTMarket",
  "sourceName": "contracts/NFTMarket.sol",
  "abi": [
    {
      "inputs": [],
      "stateMutability": "nonpayable",
      "type": "constructor"
    },
    {
      "inputs": [],
      "name": "NFTMarket__IncorrectPrice",
      "type": "error"
    },
    {
      "inputs": [],
      "name": "NFTMarket__NftNotFound",
      "type": "error"
    },
    {
      "inputs": [],
      "name": "NFTMarket__NoFundsToWithdraw",
      "type": "error"
    },
    {
      "inputs": [],
      "name": "NFTMarket__NotNftOwner",
      "type": "error"
    },
    {
      "inputs": [],
      "name": "NFTMarket__NullPrice",
      "type": "error"
    },
    {
      "anonymous": false,
      "inputs": [
        {
          "indexed": true,
          "internalType": "address",
          "name": "owner",
          "type": "address"
        },
        {
          "indexed": true,
          "internalType": "address",
          "name": "approved",
          "type": "address"
        },
        {
          "indexed": true,
          "internalType": "uint256",
          "name": "tokenId",
          "type": "uint256"
        }
      ],
      "name": "Approval",
      "type": "event"
    },
    {
      "anonymous": false,
      "inputs": [
        {
          "indexed": true,
          "internalType": "address",
          "name": "owner",
          "type": "address"
        },
        {
          "indexed": true,
          "internalType": "address",
          "name": "operator",
          "type": "address"
        },
        {
          "indexed": false,
          "internalType": "bool",
          "name": "approved",
          "type": "bool"
        }
      ],
      "name": "ApprovalForAll",
      "type": "event"
    },
    {
      "anonymous": false,
      "inputs": [
        {
          "indexed": false,
          "internalType": "uint256",
          "name": "tokenId",
          "type": "uint256"
        },
        {
          "indexed": false,
          "internalType": "address",
          "name": "from",
          "type": "address"
        },
        {
          "indexed": false,
          "internalType": "address",
          "name": "to",
          "type": "address"
        },
        {
          "indexed": false,
          "internalType": "string",
          "name": "tokenURI",
          "type": "string"
        },
        {
          "indexed": false,
          "internalType": "uint256",
          "name": "price",
          "type": "uint256"
        }
      ],
      "name": "NFTTransfer",
      "type": "event"
    },
    {
      "anonymous": false,
      "inputs": [
        {
          "indexed": true,
          "internalType": "address",
          "name": "previousOwner",
          "type": "address"
        },
        {
          "indexed": true,
          "internalType": "address",
          "name": "newOwner",
          "type": "address"
        }
      ],
      "name": "OwnershipTransferred",
      "type": "event"
    },
    {
      "anonymous": false,
      "inputs": [
        {
          "indexed": true,
          "internalType": "address",
          "name": "from",
          "type": "address"
        },
        {
          "indexed": true,
          "internalType": "address",
          "name": "to",
          "type": "address"
        },
        {
          "indexed": true,
          "internalType": "uint256",
          "name": "tokenId",
          "type": "uint256"
        }
      ],
      "name": "Transfer",
      "type": "event"
    },
    {
      "inputs": [
        {
          "internalType": "address",
          "name": "to",
          "type": "address"
        },
        {
          "internalType": "uint256",
          "name": "tokenId",
          "type": "uint256"
        }
      ],
      "name": "approve",
      "outputs": [],
      "stateMutability": "nonpayable",
      "type": "function"
    },
    {
      "inputs": [
        {
          "internalType": "address",
          "name": "owner",
          "type": "address"
        }
      ],
      "name": "balanceOf",
      "outputs": [
        {
          "internalType": "uint256",
          "name": "",
          "type": "uint256"
        }
      ],
      "stateMutability": "view",
      "type": "function"
    },
    {
      "inputs": [
        {
          "internalType": "uint256",
          "name": "tokenId",
          "type": "uint256"
        }
      ],
      "name": "buyNFT",
      "outputs": [],
      "stateMutability": "payable",
      "type": "function"
    },
    {
      "inputs": [
        {
          "internalType": "uint256",
          "name": "tokenId",
          "type": "uint256"
        }
      ],
      "name": "cancelListing",
      "outputs": [],
      "stateMutability": "nonpayable",
      "type": "function"
    },
    {
      "inputs": [
        {
          "internalType": "string",
          "name": "tokenURI",
          "type": "string"
        }
      ],
      "name": "createNFT",
      "outputs": [],
      "stateMutability": "nonpayable",
      "type": "function"
    },
    {
      "inputs": [
        {
          "internalType": "uint256",
          "name": "tokenId",
          "type": "uint256"
        }
      ],
      "name": "getApproved",
      "outputs": [
        {
          "internalType": "address",
          "name": "",
          "type": "address"
        }
      ],
      "stateMutability": "view",
      "type": "function"
    },
    {
      "inputs": [
        {
          "internalType": "address",
          "name": "owner",
          "type": "address"
        },
        {
          "internalType": "address",
          "name": "operator",
          "type": "address"
        }
      ],
      "name": "isApprovedForAll",
      "outputs": [
        {
          "internalType": "bool",
          "name": "",
          "type": "bool"
        }
      ],
      "stateMutability": "view",
      "type": "function"
    },
    {
      "inputs": [
        {
          "internalType": "uint256",
          "name": "tokenId",
          "type": "uint256"
        },
        {
          "internalType": "uint256",
          "name": "price",
          "type": "uint256"
        }
      ],
      "name": "listNFT",
      "outputs": [],
      "stateMutability": "nonpayable",
      "type": "function"
    },
    {
      "inputs": [],
      "name": "name",
      "outputs": [
        {
          "internalType": "string",
          "name": "",
          "type": "string"
        }
      ],
      "stateMutability": "view",
      "type": "function"
    },
    {
      "inputs": [],
      "name": "owner",
      "outputs": [
        {
          "internalType": "address",
          "name": "",
          "type": "address"
        }
      ],
      "stateMutability": "view",
      "type": "function"
    },
    {
      "inputs": [
        {
          "internalType": "uint256",
          "name": "tokenId",
          "type": "uint256"
        }
      ],
      "name": "ownerOf",
      "outputs": [
        {
          "internalType": "address",
          "name": "",
          "type": "address"
        }
      ],
      "stateMutability": "view",
      "type": "function"
    },
    {
      "inputs": [],
      "name": "renounceOwnership",
      "outputs": [],
      "stateMutability": "nonpayable",
      "type": "function"
    },
    {
      "inputs": [
        {
          "internalType": "address",
          "name": "from",
          "type": "address"
        },
        {
          "internalType": "address",
          "name": "to",
          "type": "address"
        },
        {
          "internalType": "uint256",
          "name": "tokenId",
          "type": "uint256"
        }
      ],
      "name": "safeTransferFrom",
      "outputs": [],
      "stateMutability": "nonpayable",
      "type": "function"
    },
    {
      "inputs": [
        {
          "internalType": "address",
          "name": "from",
          "type": "address"
        },
        {
          "internalType": "address",
          "name": "to",
          "type": "address"
        },
        {
          "internalType": "uint256",
          "name": "tokenId",
          "type": "uint256"
        },
        {
          "internalType": "bytes",
          "name": "_data",
          "type": "bytes"
        }
      ],
      "name": "safeTransferFrom",
      "outputs": [],
      "stateMutability": "nonpayable",
      "type": "function"
    },
    {
      "inputs": [
        {
          "internalType": "address",
          "name": "operator",
          "type": "address"
        },
        {
          "internalType": "bool",
          "name": "approved",
          "type": "bool"
        }
      ],
      "name": "setApprovalForAll",
      "outputs": [],
      "stateMutability": "nonpayable",
      "type": "function"
    },
    {
      "inputs": [
        {
          "internalType": "bytes4",
          "name": "interfaceId",
          "type": "bytes4"
        }
      ],
      "name": "supportsInterface",
      "outputs": [
        {
          "internalType": "bool",
          "name": "",
          "type": "bool"
        }
      ],
      "stateMutability": "view",
      "type": "function"
    },
    {
      "inputs": [],
      "name": "symbol",
      "outputs": [
        {
          "internalType": "string",
          "name": "",
          "type": "string"
        }
      ],
      "stateMutability": "view",
      "type": "function"
    },
    {
      "inputs": [
        {
          "internalType": "uint256",
          "name": "tokenId",
          "type": "uint256"
        }
      ],
      "name": "tokenURI",
      "outputs": [
        {
          "internalType": "string",
          "name": "",
          "type": "string"
        }
      ],
      "stateMutability": "view",
      "type": "function"
    },
    {
      "inputs": [
        {
          "internalType": "address",
          "name": "from",
          "type": "address"
        },
        {
          "internalType": "address",
          "name": "to",
          "type": "address"
        },
        {
          "internalType": "uint256",
          "name": "tokenId",
          "type": "uint256"
        }
      ],
      "name": "transferFrom",
      "outputs": [],
      "stateMutability": "nonpayable",
      "type": "function"
    },
    {
      "inputs": [
        {
          "internalType": "address",
          "name": "newOwner",
          "type": "address"
        }
      ],
      "name": "transferOwnership",
      "outputs": [],
      "stateMutability": "nonpayable",
      "type": "function"
    },
    {
      "inputs": [],
      "name": "withdrawFunds",
      "outputs": [],
      "stateMutability": "nonpayable",
      "type": "function"
    }
  ],
  "bytecode": "0x60806040523480156200001157600080fd5b506040518060400160405280600881526020017f77686174657665720000000000000000000000000000000000000000000000008152506040518060400160405280600381526020017f5754480000000000000000000000000000000000000000000000000000000000815250816000908051906020019062000096929190620001a6565b508060019080519060200190620000af929190620001a6565b505050620000d2620000c6620000d860201b60201c565b620000e060201b60201c565b620002bb565b600033905090565b6000600760009054906101000a900473ffffffffffffffffffffffffffffffffffffffff16905081600760006101000a81548173ffffffffffffffffffffffffffffffffffffffff021916908373ffffffffffffffffffffffffffffffffffffffff1602179055508173ffffffffffffffffffffffffffffffffffffffff168173ffffffffffffffffffffffffffffffffffffffff167f8be0079c531659141344cd1fd0a4f28419497f9722a3daafe3b4186f6b6457e060405160405180910390a35050565b828054620001b49062000285565b90600052602060002090601f016020900481019282620001d8576000855562000224565b82601f10620001f357805160ff191683800117855562000224565b8280016001018555821562000224579182015b828111156200022357825182559160200191906001019062000206565b5b50905062000233919062000237565b5090565b5b808211156200025257600081600090555060010162000238565b5090565b7f4e487b7100000000000000000000000000000000000000000000000000000000600052602260045260246000fd5b600060028204905060018216806200029e57607f821691505b60208210811415620002b557620002b462000256565b5b50919050565b613ac680620002cb6000396000f3fe60806040526004361061012a5760003560e01c806370a08231116100ab578063a22cb4651161006f578063a22cb465146103bb578063b88d4fde146103e4578063c87b56dd1461040d578063da2ed03e1461044a578063e985e9c514610473578063f2fde38b146104b05761012a565b806370a08231146102e8578063715018a6146103255780638da5cb5b1461033c57806394383f141461036757806395d89b41146103905761012a565b806324600fc3116100f257806324600fc314610226578063305a67a81461023d57806342842e0e1461026657806351ed82881461028f5780636352211e146102ab5761012a565b806301ffc9a71461012f57806306fdde031461016c578063081812fc14610197578063095ea7b3146101d457806323b872dd146101fd575b600080fd5b34801561013b57600080fd5b5061015660048036038101906101519190612505565b6104d9565b604051610163919061254d565b60405180910390f35b34801561017857600080fd5b506101816105bb565b60405161018e9190612601565b60405180910390f35b3480156101a357600080fd5b506101be60048036038101906101b99190612659565b61064d565b6040516101cb91906126c7565b60405180910390f35b3480156101e057600080fd5b506101fb60048036038101906101f6919061270e565b6106d2565b005b34801561020957600080fd5b50610224600480360381019061021f919061274e565b6107ea565b005b34801561023257600080fd5b5061023b61084a565b005b34801561024957600080fd5b50610264600480360381019061025f9190612659565b610951565b005b34801561027257600080fd5b5061028d6004803603810190610288919061274e565b610b35565b005b6102a960048036038101906102a49190612659565b610b55565b005b3480156102b757600080fd5b506102d260048036038101906102cd9190612659565b610d82565b6040516102df91906126c7565b60405180910390f35b3480156102f457600080fd5b5061030f600480360381019061030a91906127a1565b610e34565b60405161031c91906127dd565b60405180910390f35b34801561033157600080fd5b5061033a610eec565b005b34801561034857600080fd5b50610351610f74565b60405161035e91906126c7565b60405180910390f35b34801561037357600080fd5b5061038e600480360381019061038991906127f8565b610f9e565b005b34801561039c57600080fd5b506103a56110b7565b6040516103b29190612601565b60405180910390f35b3480156103c757600080fd5b506103e260048036038101906103dd9190612864565b611149565b005b3480156103f057600080fd5b5061040b600480360381019061040691906129d9565b61115f565b005b34801561041957600080fd5b50610434600480360381019061042f9190612659565b6111c1565b6040516104419190612601565b60405180910390f35b34801561045657600080fd5b50610471600480360381019061046c9190612abc565b611313565b005b34801561047f57600080fd5b5061049a60048036038101906104959190612b09565b6113cb565b6040516104a7919061254d565b60405180910390f35b3480156104bc57600080fd5b506104d760048036038101906104d291906127a1565b61145f565b005b60007f80ac58cd000000000000000000000000000000000000000000000000000000007bffffffffffffffffffffffffffffffffffffffffffffffffffffffff1916827bffffffffffffffffffffffffffffffffffffffffffffffffffffffff191614806105a457507f5b5e139f000000000000000000000000000000000000000000000000000000007bffffffffffffffffffffffffffffffffffffffffffffffffffffffff1916827bffffffffffffffffffffffffffffffffffffffffffffffffffffffff1916145b806105b457506105b382611557565b5b9050919050565b6060600080546105ca90612b78565b80601f01602080910402602001604051908101604052809291908181526020018280546105f690612b78565b80156106435780601f1061061857610100808354040283529160200191610643565b820191906000526020600020905b81548152906001019060200180831161062657829003601f168201915b5050505050905090565b6000610658826115c1565b610697576040517f08c379a000000000000000000000000000000000000000000000000000000000815260040161068e90612c1c565b60405180910390fd5b6004600083815260200190815260200160002060009054906101000a900473ffffffffffffffffffffffffffffffffffffffff169050919050565b60006106dd82610d82565b90508073ffffffffffffffffffffffffffffffffffffffff168373ffffffffffffffffffffffffffffffffffffffff16141561074e576040517f08c379a000000000000000000000000000000000000000000000000000000000815260040161074590612cae565b60405180910390fd5b8073ffffffffffffffffffffffffffffffffffffffff1661076d61162d565b73ffffffffffffffffffffffffffffffffffffffff16148061079c575061079b8161079661162d565b6113cb565b5b6107db576040517f08c379a00000000000000000000000000000000000000000000000000000000081526004016107d290612d40565b60405180910390fd5b6107e58383611635565b505050565b6107fb6107f561162d565b826116ee565b61083a576040517f08c379a000000000000000000000000000000000000000000000000000000000815260040161083190612dd2565b60405180910390fd5b6108458383836117cc565b505050565b61085261162d565b73ffffffffffffffffffffffffffffffffffffffff16610870610f74565b73ffffffffffffffffffffffffffffffffffffffff16146108c6576040517f08c379a00000000000000000000000000000000000000000000000000000000081526004016108bd90612e3e565b60405180910390fd5b6001471015610901576040517fb524c43900000000000000000000000000000000000000000000000000000000815260040160405180910390fd5b610909610f74565b73ffffffffffffffffffffffffffffffffffffffff166108fc479081150290604051600060405180830381858888f1935050505015801561094e573d6000803e3d6000fd5b50565b600060096000838152602001908152602001600020604051806040016040529081600082015481526020016001820160009054906101000a900473ffffffffffffffffffffffffffffffffffffffff1673ffffffffffffffffffffffffffffffffffffffff1673ffffffffffffffffffffffffffffffffffffffff16815250509050600181600001511015610a12576040517f66844ad000000000000000000000000000000000000000000000000000000000815260040160405180910390fd5b3373ffffffffffffffffffffffffffffffffffffffff16816020015173ffffffffffffffffffffffffffffffffffffffff1614610a7b576040517f6f34843000000000000000000000000000000000000000000000000000000000815260040160405180910390fd5b3073ffffffffffffffffffffffffffffffffffffffff166323b872dd3033856040518463ffffffff1660e01b8152600401610ab893929190612e5e565b600060405180830381600087803b158015610ad257600080fd5b505af1158015610ae6573d6000803e3d6000fd5b50505050610af382611a28565b7f705332a8918666802fc1504f63ff1f002a5f6cedd30d59ad7ae0b5281aeb8dca8230336000604051610b299493929190612f00565b60405180910390a15050565b610b508383836040518060200160405280600081525061115f565b505050565b600060096000838152602001908152602001600020604051806040016040529081600082015481526020016001820160009054906101000a900473ffffffffffffffffffffffffffffffffffffffff1673ffffffffffffffffffffffffffffffffffffffff1673ffffffffffffffffffffffffffffffffffffffff16815250509050600181600001511015610c16576040517f66844ad000000000000000000000000000000000000000000000000000000000815260040160405180910390fd5b80600001513414610c53576040517f43ab552300000000000000000000000000000000000000000000000000000000815260040160405180910390fd5b3073ffffffffffffffffffffffffffffffffffffffff166323b872dd3033856040518463ffffffff1660e01b8152600401610c9093929190612e5e565b600060405180830381600087803b158015610caa57600080fd5b505af1158015610cbe573d6000803e3d6000fd5b50505050610ccb82611a28565b806020015173ffffffffffffffffffffffffffffffffffffffff166108fc610d146064610d06605f8660000151611a9d90919063ffffffff16565b611ab390919063ffffffff16565b9081150290604051600060405180830381858888f19350505050158015610d3f573d6000803e3d6000fd5b507f705332a8918666802fc1504f63ff1f002a5f6cedd30d59ad7ae0b5281aeb8dca8230336000604051610d769493929190612f00565b60405180910390a15050565b6000806002600084815260200190815260200160002060009054906101000a900473ffffffffffffffffffffffffffffffffffffffff169050600073ffffffffffffffffffffffffffffffffffffffff168173ffffffffffffffffffffffffffffffffffffffff161415610e2b576040517f08c379a0000000000000000000000000000000000000000000000000000000008152600401610e2290612fca565b60405180910390fd5b80915050919050565b60008073ffffffffffffffffffffffffffffffffffffffff168273ffffffffffffffffffffffffffffffffffffffff161415610ea5576040517f08c379a0000000000000000000000000000000000000000000000000000000008152600401610e9c9061305c565b60405180910390fd5b600360008373ffffffffffffffffffffffffffffffffffffffff1673ffffffffffffffffffffffffffffffffffffffff168152602001908152602001600020549050919050565b610ef461162d565b73ffffffffffffffffffffffffffffffffffffffff16610f12610f74565b73ffffffffffffffffffffffffffffffffffffffff1614610f68576040517f08c379a0000000000000000000000000000000000000000000000000000000008152600401610f5f90612e3e565b60405180910390fd5b610f726000611ac9565b565b6000600760009054906101000a900473ffffffffffffffffffffffffffffffffffffffff16905090565b6001811015610fd9576040517f76d69fac00000000000000000000000000000000000000000000000000000000815260040160405180910390fd5b610fe43330846107ea565b60405180604001604052808281526020013373ffffffffffffffffffffffffffffffffffffffff16815250600960008481526020019081526020016000206000820151816000015560208201518160010160006101000a81548173ffffffffffffffffffffffffffffffffffffffff021916908373ffffffffffffffffffffffffffffffffffffffff1602179055509050507f705332a8918666802fc1504f63ff1f002a5f6cedd30d59ad7ae0b5281aeb8dca823330846040516110ab949392919061307c565b60405180910390a15050565b6060600180546110c690612b78565b80601f01602080910402602001604051908101604052809291908181526020018280546110f290612b78565b801561113f5780601f106111145761010080835404028352916020019161113f565b820191906000526020600020905b81548152906001019060200180831161112257829003601f168201915b5050505050905090565b61115b61115461162d565b8383611b8f565b5050565b61117061116a61162d565b836116ee565b6111af576040517f08c379a00000000000000000000000000000000000000000000000000000000081526004016111a690612dd2565b60405180910390fd5b6111bb84848484611cfc565b50505050565b60606111cc826115c1565b61120b576040517f08c379a000000000000000000000000000000000000000000000000000000000815260040161120290613146565b60405180910390fd5b600060066000848152602001908152602001600020805461122b90612b78565b80601f016020809104026020016040519081016040528092919081815260200182805461125790612b78565b80156112a45780601f10611279576101008083540402835291602001916112a4565b820191906000526020600020905b81548152906001019060200180831161128757829003601f168201915b5050505050905060006112b5611d58565b90506000815114156112cb57819250505061130e565b6000825111156113005780826040516020016112e89291906131a2565b6040516020818303038152906040529250505061130e565b61130984611d6f565b925050505b919050565b61131d6008611e16565b60006113296008611e2c565b90506113353382611e3a565b6113838184848080601f016020809104026020016040519081016040528093929190818152602001838380828437600081840152601f19601f82011690508083019250505050505050611e58565b7f705332a8918666802fc1504f63ff1f002a5f6cedd30d59ad7ae0b5281aeb8dca81600033868660006040516113be969594939291906131f3565b60405180910390a1505050565b6000600560008473ffffffffffffffffffffffffffffffffffffffff1673ffffffffffffffffffffffffffffffffffffffff16815260200190815260200160002060008373ffffffffffffffffffffffffffffffffffffffff1673ffffffffffffffffffffffffffffffffffffffff16815260200190815260200160002060009054906101000a900460ff16905092915050565b61146761162d565b73ffffffffffffffffffffffffffffffffffffffff16611485610f74565b73ffffffffffffffffffffffffffffffffffffffff16146114db576040517f08c379a00000000000000000000000000000000000000000000000000000000081526004016114d290612e3e565b60405180910390fd5b600073ffffffffffffffffffffffffffffffffffffffff168173ffffffffffffffffffffffffffffffffffffffff16141561154b576040517f08c379a0000000000000000000000000000000000000000000000000000000008152600401611542906132c1565b60405180910390fd5b61155481611ac9565b50565b60007f01ffc9a7000000000000000000000000000000000000000000000000000000007bffffffffffffffffffffffffffffffffffffffffffffffffffffffff1916827bffffffffffffffffffffffffffffffffffffffffffffffffffffffff1916149050919050565b60008073ffffffffffffffffffffffffffffffffffffffff166002600084815260200190815260200160002060009054906101000a900473ffffffffffffffffffffffffffffffffffffffff1673ffffffffffffffffffffffffffffffffffffffff1614159050919050565b600033905090565b816004600083815260200190815260200160002060006101000a81548173ffffffffffffffffffffffffffffffffffffffff021916908373ffffffffffffffffffffffffffffffffffffffff160217905550808273ffffffffffffffffffffffffffffffffffffffff166116a883610d82565b73ffffffffffffffffffffffffffffffffffffffff167f8c5be1e5ebec7d5bd14f71427d1e84f3dd0314c0f7b2291e5b200ac8c7c3b92560405160405180910390a45050565b60006116f9826115c1565b611738576040517f08c379a000000000000000000000000000000000000000000000000000000000815260040161172f90613353565b60405180910390fd5b600061174383610d82565b90508073ffffffffffffffffffffffffffffffffffffffff168473ffffffffffffffffffffffffffffffffffffffff1614806117b257508373ffffffffffffffffffffffffffffffffffffffff1661179a8461064d565b73ffffffffffffffffffffffffffffffffffffffff16145b806117c357506117c281856113cb565b5b91505092915050565b8273ffffffffffffffffffffffffffffffffffffffff166117ec82610d82565b73ffffffffffffffffffffffffffffffffffffffff1614611842576040517f08c379a0000000000000000000000000000000000000000000000000000000008152600401611839906133e5565b60405180910390fd5b600073ffffffffffffffffffffffffffffffffffffffff168273ffffffffffffffffffffffffffffffffffffffff1614156118b2576040517f08c379a00000000000000000000000000000000000000000000000000000000081526004016118a990613477565b60405180910390fd5b6118bd838383611ecc565b6118c8600082611635565b6001600360008573ffffffffffffffffffffffffffffffffffffffff1673ffffffffffffffffffffffffffffffffffffffff168152602001908152602001600020600082825461191891906134c6565b925050819055506001600360008473ffffffffffffffffffffffffffffffffffffffff1673ffffffffffffffffffffffffffffffffffffffff168152602001908152602001600020600082825461196f91906134fa565b92505081905550816002600083815260200190815260200160002060006101000a81548173ffffffffffffffffffffffffffffffffffffffff021916908373ffffffffffffffffffffffffffffffffffffffff160217905550808273ffffffffffffffffffffffffffffffffffffffff168473ffffffffffffffffffffffffffffffffffffffff167fddf252ad1be2c89b69c2b068fc378daa952ba7f163c4a11628f55a4df523b3ef60405160405180910390a4505050565b6000600960008381526020019081526020016000206000018190555060006009600083815260200190815260200160002060010160006101000a81548173ffffffffffffffffffffffffffffffffffffffff021916908373ffffffffffffffffffffffffffffffffffffffff16021790555050565b60008183611aab9190613550565b905092915050565b60008183611ac191906135d9565b905092915050565b6000600760009054906101000a900473ffffffffffffffffffffffffffffffffffffffff16905081600760006101000a81548173ffffffffffffffffffffffffffffffffffffffff021916908373ffffffffffffffffffffffffffffffffffffffff1602179055508173ffffffffffffffffffffffffffffffffffffffff168173ffffffffffffffffffffffffffffffffffffffff167f8be0079c531659141344cd1fd0a4f28419497f9722a3daafe3b4186f6b6457e060405160405180910390a35050565b8173ffffffffffffffffffffffffffffffffffffffff168373ffffffffffffffffffffffffffffffffffffffff161415611bfe576040517f08c379a0000000000000000000000000000000000000000000000000000000008152600401611bf590613656565b60405180910390fd5b80600560008573ffffffffffffffffffffffffffffffffffffffff1673ffffffffffffffffffffffffffffffffffffffff16815260200190815260200160002060008473ffffffffffffffffffffffffffffffffffffffff1673ffffffffffffffffffffffffffffffffffffffff16815260200190815260200160002060006101000a81548160ff0219169083151502179055508173ffffffffffffffffffffffffffffffffffffffff168373ffffffffffffffffffffffffffffffffffffffff167f17307eab39ab6107e8899845ad3d59bd9653f200f220920489ca2b5937696c3183604051611cef919061254d565b60405180910390a3505050565b611d078484846117cc565b611d1384848484611ed1565b611d52576040517f08c379a0000000000000000000000000000000000000000000000000000000008152600401611d49906136e8565b60405180910390fd5b50505050565b606060405180602001604052806000815250905090565b6060611d7a826115c1565b611db9576040517f08c379a0000000000000000000000000000000000000000000000000000000008152600401611db09061377a565b60405180910390fd5b6000611dc3611d58565b90506000815111611de35760405180602001604052806000815250611e0e565b80611ded84612059565b604051602001611dfe9291906131a2565b6040516020818303038152906040525b915050919050565b6001816000016000828254019250508190555050565b600081600001549050919050565b611e548282604051806020016040528060008152506121ba565b5050565b611e61826115c1565b611ea0576040517f08c379a0000000000000000000000000000000000000000000000000000000008152600401611e979061380c565b60405180910390fd5b80600660008481526020019081526020016000209080519060200190611ec79291906123f6565b505050565b505050565b6000611ef28473ffffffffffffffffffffffffffffffffffffffff16612215565b1561204c578373ffffffffffffffffffffffffffffffffffffffff1663150b7a02611f1b61162d565b8786866040518563ffffffff1660e01b8152600401611f3d9493929190613881565b6020604051808303816000875af1925050508015611f7957506040513d601f19601f82011682018060405250810190611f7691906138e2565b60015b611ffc573d8060008114611fa9576040519150601f19603f3d011682016040523d82523d6000602084013e611fae565b606091505b50600081511415611ff4576040517f08c379a0000000000000000000000000000000000000000000000000000000008152600401611feb906136e8565b60405180910390fd5b805181602001fd5b63150b7a0260e01b7bffffffffffffffffffffffffffffffffffffffffffffffffffffffff1916817bffffffffffffffffffffffffffffffffffffffffffffffffffffffff191614915050612051565b600190505b949350505050565b606060008214156120a1576040518060400160405280600181526020017f300000000000000000000000000000000000000000000000000000000000000081525090506121b5565b600082905060005b600082146120d35780806120bc9061390f565b915050600a826120cc91906135d9565b91506120a9565b60008167ffffffffffffffff8111156120ef576120ee6128ae565b5b6040519080825280601f01601f1916602001820160405280156121215781602001600182028036833780820191505090505b5090505b600085146121ae5760018261213a91906134c6565b9150600a856121499190613958565b603061215591906134fa565b60f81b81838151811061216b5761216a613989565b5b60200101907effffffffffffffffffffffffffffffffffffffffffffffffffffffffffffff1916908160001a905350600a856121a791906135d9565b9450612125565b8093505050505b919050565b6121c48383612228565b6121d16000848484611ed1565b612210576040517f08c379a0000000000000000000000000000000000000000000000000000000008152600401612207906136e8565b60405180910390fd5b505050565b600080823b905060008111915050919050565b600073ffffffffffffffffffffffffffffffffffffffff168273ffffffffffffffffffffffffffffffffffffffff161415612298576040517f08c379a000000000000000000000000000000000000000000000000000000000815260040161228f90613a04565b60405180910390fd5b6122a1816115c1565b156122e1576040517f08c379a00000000000000000000000000000000000000000000000000000000081526004016122d890613a70565b60405180910390fd5b6122ed60008383611ecc565b6001600360008473ffffffffffffffffffffffffffffffffffffffff1673ffffffffffffffffffffffffffffffffffffffff168152602001908152602001600020600082825461233d91906134fa565b92505081905550816002600083815260200190815260200160002060006101000a81548173ffffffffffffffffffffffffffffffffffffffff021916908373ffffffffffffffffffffffffffffffffffffffff160217905550808273ffffffffffffffffffffffffffffffffffffffff16600073ffffffffffffffffffffffffffffffffffffffff167fddf252ad1be2c89b69c2b068fc378daa952ba7f163c4a11628f55a4df523b3ef60405160405180910390a45050565b82805461240290612b78565b90600052602060002090601f016020900481019282612424576000855561246b565b82601f1061243d57805160ff191683800117855561246b565b8280016001018555821561246b579182015b8281111561246a57825182559160200191906001019061244f565b5b509050612478919061247c565b5090565b5b8082111561249557600081600090555060010161247d565b5090565b6000604051905090565b600080fd5b600080fd5b60007fffffffff0000000000000000000000000000000000000000000000000000000082169050919050565b6124e2816124ad565b81146124ed57600080fd5b50565b6000813590506124ff816124d9565b92915050565b60006020828403121561251b5761251a6124a3565b5b6000612529848285016124f0565b91505092915050565b60008115159050919050565b61254781612532565b82525050565b6000602082019050612562600083018461253e565b92915050565b600081519050919050565b600082825260208201905092915050565b60005b838110156125a2578082015181840152602081019050612587565b838111156125b1576000848401525b50505050565b6000601f19601f8301169050919050565b60006125d382612568565b6125dd8185612573565b93506125ed818560208601612584565b6125f6816125b7565b840191505092915050565b6000602082019050818103600083015261261b81846125c8565b905092915050565b6000819050919050565b61263681612623565b811461264157600080fd5b50565b6000813590506126538161262d565b92915050565b60006020828403121561266f5761266e6124a3565b5b600061267d84828501612644565b91505092915050565b600073ffffffffffffffffffffffffffffffffffffffff82169050919050565b60006126b182612686565b9050919050565b6126c1816126a6565b82525050565b60006020820190506126dc60008301846126b8565b92915050565b6126eb816126a6565b81146126f657600080fd5b50565b600081359050612708816126e2565b92915050565b60008060408385031215612725576127246124a3565b5b6000612733858286016126f9565b925050602061274485828601612644565b9150509250929050565b600080600060608486031215612767576127666124a3565b5b6000612775868287016126f9565b9350506020612786868287016126f9565b925050604061279786828701612644565b9150509250925092565b6000602082840312156127b7576127b66124a3565b5b60006127c5848285016126f9565b91505092915050565b6127d781612623565b82525050565b60006020820190506127f260008301846127ce565b92915050565b6000806040838503121561280f5761280e6124a3565b5b600061281d85828601612644565b925050602061282e85828601612644565b9150509250929050565b61284181612532565b811461284c57600080fd5b50565b60008135905061285e81612838565b92915050565b6000806040838503121561287b5761287a6124a3565b5b6000612889858286016126f9565b925050602061289a8582860161284f565b9150509250929050565b600080fd5b600080fd5b7f4e487b7100000000000000000000000000000000000000000000000000000000600052604160045260246000fd5b6128e6826125b7565b810181811067ffffffffffffffff82111715612905576129046128ae565b5b80604052505050565b6000612918612499565b905061292482826128dd565b919050565b600067ffffffffffffffff821115612944576129436128ae565b5b61294d826125b7565b9050602081019050919050565b82818337600083830152505050565b600061297c61297784612929565b61290e565b905082815260208101848484011115612998576129976128a9565b5b6129a384828561295a565b509392505050565b600082601f8301126129c0576129bf6128a4565b5b81356129d0848260208601612969565b91505092915050565b600080600080608085870312156129f3576129f26124a3565b5b6000612a01878288016126f9565b9450506020612a12878288016126f9565b9350506040612a2387828801612644565b925050606085013567ffffffffffffffff811115612a4457612a436124a8565b5b612a50878288016129ab565b91505092959194509250565b600080fd5b600080fd5b60008083601f840112612a7c57612a7b6128a4565b5b8235905067ffffffffffffffff811115612a9957612a98612a5c565b5b602083019150836001820283011115612ab557612ab4612a61565b5b9250929050565b60008060208385031215612ad357612ad26124a3565b5b600083013567ffffffffffffffff811115612af157612af06124a8565b5b612afd85828601612a66565b92509250509250929050565b60008060408385031215612b2057612b1f6124a3565b5b6000612b2e858286016126f9565b9250506020612b3f858286016126f9565b9150509250929050565b7f4e487b7100000000000000000000000000000000000000000000000000000000600052602260045260246000fd5b60006002820490506001821680612b9057607f821691505b60208210811415612ba457612ba3612b49565b5b50919050565b7f4552433732313a20617070726f76656420717565727920666f72206e6f6e657860008201527f697374656e7420746f6b656e0000000000000000000000000000000000000000602082015250565b6000612c06602c83612573565b9150612c1182612baa565b604082019050919050565b60006020820190508181036000830152612c3581612bf9565b9050919050565b7f4552433732313a20617070726f76616c20746f2063757272656e74206f776e6560008201527f7200000000000000000000000000000000000000000000000000000000000000602082015250565b6000612c98602183612573565b9150612ca382612c3c565b604082019050919050565b60006020820190508181036000830152612cc781612c8b565b9050919050565b7f4552433732313a20617070726f76652063616c6c6572206973206e6f74206f7760008201527f6e6572206e6f7220617070726f76656420666f7220616c6c0000000000000000602082015250565b6000612d2a603883612573565b9150612d3582612cce565b604082019050919050565b60006020820190508181036000830152612d5981612d1d565b9050919050565b7f4552433732313a207472616e736665722063616c6c6572206973206e6f74206f60008201527f776e6572206e6f7220617070726f766564000000000000000000000000000000602082015250565b6000612dbc603183612573565b9150612dc782612d60565b604082019050919050565b60006020820190508181036000830152612deb81612daf565b9050919050565b7f4f776e61626c653a2063616c6c6572206973206e6f7420746865206f776e6572600082015250565b6000612e28602083612573565b9150612e3382612df2565b602082019050919050565b60006020820190508181036000830152612e5781612e1b565b9050919050565b6000606082019050612e7360008301866126b8565b612e8060208301856126b8565b612e8d60408301846127ce565b949350505050565b50565b6000612ea5600083612573565b9150612eb082612e95565b600082019050919050565b6000819050919050565b6000819050919050565b6000612eea612ee5612ee084612ebb565b612ec5565b612623565b9050919050565b612efa81612ecf565b82525050565b600060a082019050612f1560008301876127ce565b612f2260208301866126b8565b612f2f60408301856126b8565b8181036060830152612f4081612e98565b9050612f4f6080830184612ef1565b95945050505050565b7f4552433732313a206f776e657220717565727920666f72206e6f6e657869737460008201527f656e7420746f6b656e0000000000000000000000000000000000000000000000602082015250565b6000612fb4602983612573565b9150612fbf82612f58565b604082019050919050565b60006020820190508181036000830152612fe381612fa7565b9050919050565b7f4552433732313a2062616c616e636520717565727920666f7220746865207a6560008201527f726f206164647265737300000000000000000000000000000000000000000000602082015250565b6000613046602a83612573565b915061305182612fea565b604082019050919050565b6000602082019050818103600083015261307581613039565b9050919050565b600060a08201905061309160008301876127ce565b61309e60208301866126b8565b6130ab60408301856126b8565b81810360608301526130bc81612e98565b90506130cb60808301846127ce565b95945050505050565b7f45524337323155524953746f726167653a2055524920717565727920666f722060008201527f6e6f6e6578697374656e7420746f6b656e000000000000000000000000000000602082015250565b6000613130603183612573565b915061313b826130d4565b604082019050919050565b6000602082019050818103600083015261315f81613123565b9050919050565b600081905092915050565b600061317c82612568565b6131868185613166565b9350613196818560208601612584565b80840191505092915050565b60006131ae8285613171565b91506131ba8284613171565b91508190509392505050565b60006131d28385612573565b93506131df83858461295a565b6131e8836125b7565b840190509392505050565b600060a08201905061320860008301896127ce565b61321560208301886126b8565b61322260408301876126b8565b81810360608301526132358185876131c6565b90506132446080830184612ef1565b979650505050505050565b7f4f776e61626c653a206e6577206f776e657220697320746865207a65726f206160008201527f6464726573730000000000000000000000000000000000000000000000000000602082015250565b60006132ab602683612573565b91506132b68261324f565b604082019050919050565b600060208201905081810360008301526132da8161329e565b9050919050565b7f4552433732313a206f70657261746f7220717565727920666f72206e6f6e657860008201527f697374656e7420746f6b656e0000000000000000000000000000000000000000602082015250565b600061333d602c83612573565b9150613348826132e1565b604082019050919050565b6000602082019050818103600083015261336c81613330565b9050919050565b7f4552433732313a207472616e73666572206f6620746f6b656e2074686174206960008201527f73206e6f74206f776e0000000000000000000000000000000000000000000000602082015250565b60006133cf602983612573565b91506133da82613373565b604082019050919050565b600060208201905081810360008301526133fe816133c2565b9050919050565b7f4552433732313a207472616e7366657220746f20746865207a65726f2061646460008201527f7265737300000000000000000000000000000000000000000000000000000000602082015250565b6000613461602483612573565b915061346c82613405565b604082019050919050565b6000602082019050818103600083015261349081613454565b9050919050565b7f4e487b7100000000000000000000000000000000000000000000000000000000600052601160045260246000fd5b60006134d182612623565b91506134dc83612623565b9250828210156134ef576134ee613497565b5b828203905092915050565b600061350582612623565b915061351083612623565b9250827fffffffffffffffffffffffffffffffffffffffffffffffffffffffffffffffff0382111561354557613544613497565b5b828201905092915050565b600061355b82612623565b915061356683612623565b9250817fffffffffffffffffffffffffffffffffffffffffffffffffffffffffffffffff048311821515161561359f5761359e613497565b5b828202905092915050565b7f4e487b7100000000000000000000000000000000000000000000000000000000600052601260045260246000fd5b60006135e482612623565b91506135ef83612623565b9250826135ff576135fe6135aa565b5b828204905092915050565b7f4552433732313a20617070726f766520746f2063616c6c657200000000000000600082015250565b6000613640601983612573565b915061364b8261360a565b602082019050919050565b6000602082019050818103600083015261366f81613633565b9050919050565b7f4552433732313a207472616e7366657220746f206e6f6e20455243373231526560008201527f63656976657220696d706c656d656e7465720000000000000000000000000000602082015250565b60006136d2603283612573565b91506136dd82613676565b604082019050919050565b60006020820190508181036000830152613701816136c5565b9050919050565b7f4552433732314d657461646174613a2055524920717565727920666f72206e6f60008201527f6e6578697374656e7420746f6b656e0000000000000000000000000000000000602082015250565b6000613764602f83612573565b915061376f82613708565b604082019050919050565b6000602082019050818103600083015261379381613757565b9050919050565b7f45524337323155524953746f726167653a2055524920736574206f66206e6f6e60008201527f6578697374656e7420746f6b656e000000000000000000000000000000000000602082015250565b60006137f6602e83612573565b91506138018261379a565b604082019050919050565b60006020820190508181036000830152613825816137e9565b9050919050565b600081519050919050565b600082825260208201905092915050565b60006138538261382c565b61385d8185613837565b935061386d818560208601612584565b613876816125b7565b840191505092915050565b600060808201905061389660008301876126b8565b6138a360208301866126b8565b6138b060408301856127ce565b81810360608301526138c28184613848565b905095945050505050565b6000815190506138dc816124d9565b92915050565b6000602082840312156138f8576138f76124a3565b5b6000613906848285016138cd565b91505092915050565b600061391a82612623565b91507fffffffffffffffffffffffffffffffffffffffffffffffffffffffffffffffff82141561394d5761394c613497565b5b600182019050919050565b600061396382612623565b915061396e83612623565b92508261397e5761397d6135aa565b5b828206905092915050565b7f4e487b7100000000000000000000000000000000000000000000000000000000600052603260045260246000fd5b7f4552433732313a206d696e7420746f20746865207a65726f2061646472657373600082015250565b60006139ee602083612573565b91506139f9826139b8565b602082019050919050565b60006020820190508181036000830152613a1d816139e1565b9050919050565b7f4552433732313a20746f6b656e20616c7265616479206d696e74656400000000600082015250565b6000613a5a601c83612573565b9150613a6582613a24565b602082019050919050565b60006020820190508181036000830152613a8981613a4d565b905091905056fea264697066735822122010c08ce6bbe45a966790ddb1464357e38d025daca12ac123df3d71b6552fbf7764736f6c634300080b0033",
  "linkReferences": {},
  "deployedLinkReferences": {}
}